:020000041000EA
:1000000000B5324B212058609868022188439860DF
:10001000D860186158612E4B002199600221596106
:100020000121F02299502B49196001219960352056
:1000300000F044F80222904214D00621196600F024
:1000400034F8196E01211966002018661A6600F04E
:100050002CF8196E196E196E052000F02FF8012189
:100060000842F9D1002199601B49196000215960AB
:100070001A491B48016001219960EB211966A021F2
:10008000196600F012F800219960164914480160C1
:100090000121996001BC002800D000471248134993
:1000A000086003C880F30888084703B5996A0420EC
:1000B0000142FBD001200142F8D103BD02B5186610
:1000C0001866FFF7F2FF186E186E02BD00000240BE
:1000D000000000180000070000035F00212200005C
:1000E000F4000018222000A00001001008ED00E03C
:1000F00000000000000000000000000074B24E7A12
:1001000000200420F7010010CB010010CD010010E9
:10011000C9010010C9010010C9010010C901001077
:10012000C9010010C9010010C9010010CF01001061
:10013000C9010010C9010010D1010010D301001045
:10014000C1010010C1010010C1010010C101001067
:10015000C1010010C1010010C1010010C101001057
:10016000C1010010C1010010C1010010C101001047
:10017000C1010010C1010010C1010010C101001037
:10018000C1010010C1010010C1010010C101001027
:10019000C1010010C1010010C1010010C101001017
:1001A000C1010010C1010010C1010010C101001007
:1001B000C1010010C1010010C1010010C1010010F7
:1001C000EFF30580103800BE00BE00BE00BE00BECA
:1001D00000BE00BEF2EB887138510010545100107F
:1001E0003802001090A31AE71E481F49086006C88D
:1001F00081F3088810471D480068002801D019487D
:10020000F3E70DA40ECC002902D000F012F8F9E7B4
:100210001749184A002000E001C19142FCD116495B
:100220008847164988471649884700BEFDE701C937
:1002300001C29A42FBD3704754510010C000002005
:10024000E80E00207C5F0010000004200000042065
:100250007C5F00100010042000100420000000004B
:10026000704700000000000008ED00E0000000D032
:10027000E80E0020541B0020E53100100903001097
:10028000DD310010F8B5C04606480749091A8B1041
:10029000C90FC91810B5491003D0044B002B00D06A
:1002A000984710BDE80E0020E80E00200000000076
:1002B000054B10B5002B03D00449054800E000BFF2
:1002C000FFF7E2FF10BDC04600000000101B002039
:1002D000504C001010B5074B1B78002B04D1064979
:1002E000064800F0EFFE10BD0549064800F0EAFEA2
:1002F000F9E7C0464F1B0020504C0010FC0D0020B9
:100300005C4C0010D80D0020F0B5DE4657464E4636
:100310004546E0B583B003F04DF8FA20800002F0C6
:1003200079F800F07FF800F0B9F900F049FF00F02B
:100330002DFAFFF7CFFF334B334F9B46334B344EF1
:100340009A46344B0093344B0193344B9946344BCB
:10035000984601200021404203F0BCFA002400F03E
:1003600091F807E0280000F063F900281BD1013460
:10037000092C1DD0E5B2280000F046F90028F1D084
:100380003B5D3278072B29D05B00002A1ED14A46FC
:10039000D21851784A46D05C00F018FF280000F0CF
:1003A00047F90028E3D0013400F02CFF092CE1D1FB
:1003B00000F09CF9002805D00021002818DD4F200E
:1003C00000F004FF012002F025F8C2E74246D218EF
:1003D00051784246D05C00F0F9FEC3E753425341E6
:1003E0003370002A08D05946504600F06BFEB9E73A
:1003F000502000F0EBFEE5E70099019800F062FE66
:10040000B0E7C046504C0010EC4D0010FC0D002031
:100410004F1B00205C4C0010D80D0020D84D001060
:10042000C44D0010F0B5C646002000B5D02601F03E
:1004300029F90123360673620120B36101F022F924
:10044000022302207362B36101F01CF9042373627A
:10045000B3610B4B00249846012743461D5D0134D0
:10046000280001F00FF93B00AB40012200212800D9
:10047000B36201F05FF8032CEFD180BCB846F0BD49
:10048000F84D0010F0B5DE4657464E464546E0B5FD
:10049000594A5A4B9346128885B01A8002F064F884
:1004A000002900D1A1E0FA220023920002F09CFB77
:1004B0008146534B00240293D0234A461B06002555
:1004C00001279846A1464F4E01923A00029B0A200E
:1004D0005B5D00219A4043465A61924601F086FFD7
:1004E0004346019A58683368D31A052B62D85B4695
:1004F0001B881A002A41174205D03A004946AA40F3
:1005000011438AB2914642465268F06894461A00F6
:10051000019CE91C0A41201A052838D8174205D049
:100520003A008A40494611438AB291464246019CAC
:100530005068B269A91D0B41A21A052A19D81F4299
:1005400005D03B004A468B401A4393B29946434636
:10055000524601359A610436032DB6D14C465B46AE
:1005600020001C8005B0F0BCBB46B246A946A046A0
:10057000F0BD402202401000441EA0413B40C4B2E6
:10058000984229D0019BB361002AE0D0D9E76446A4
:100590001020204004003A400392621E9441A44679
:1005A000E4B22200039CA4451CD0019AF26000280A
:1005B000BCD0B5E7082318405B461B8801001A0031
:1005C0004C1EA1412A41CCB23A40914207D0019A37
:1005D0003260002897D090E7002CB8D0B1E7002C0B
:1005E00091D08AE7002AA1D09AE7FA21890002F087
:1005F000BDFA81465DE7C046481B00204A1B00202B
:10060000FC4D0010D8140020074B10B51988074B7B
:1006100001241B8802004B40034100201C4202D0F1
:1006200011412000084010BD481B00204A1B00203B
:10063000074B10B51988074B01241B8802004B405B
:10064000034100201C4202D011412000884310BD0C
:10065000481B00204A1B0020D023012210B50C4962
:100660001B0658685B680C78800EDB0E1340A400F4
:1006700002402343520013430F2213400B700978AA
:10068000044A05481378415C5B185BB2137010BDD7
:10069000511B0020501B0020004E001010B51A20E6
:1006A00000F0F0FF1B2000F0EDFFD02380221B069E
:1006B000D2049A62802212059A62012100221A2035
:1006C00000F038FF002201211B2000F033FF01223F
:1006D0000C211A20044B00F06DFF01220C211B207D
:1006E00000F03CFF10BDC046590600100320064A2A
:1006F00013785BB2D9170840C018801013788100B6
:100700005B1A5BB213707047501B0020F8B5D02500
:100710004746CE4680232D0680B56B627F3B9946C7
:100720007F3307000724984613E043466B61802619
:1007300001200021B60501F059FE012000216E6163
:1007400001F054FE01200021AE6101F04FFE013C9A
:1007500007D33B004A4623411A42E6D14346AB61E8
:10076000E5E7D024802580232406AD05A36201207F
:100770006561002101F03AFE63680120A561002156
:1007800001F034FEC0BCB946B046F8BD70B5D02407
:10079000802680251D202406B60500F073FF072063
:1007A00000F070FF6662642065626661656101F059
:1007B00031FE6562012065610021666101F016FE6F
:1007C00001200021A56101F011FE00210120A66198
:1007D00001F00CFE7820FFF799FF0020FFF796FF4D
:1007E000AE20FFF793FF65620120A56100216661DD
:1007F00001F0FCFD01200021656101F0F7FD65625B
:10080000012065610021666101F0F0FD01200021F9
:10081000A56101F0EBFD00210120A66101F0E6FDDC
:100820007820FFF773FF0020FFF770FFD520FFF758
:100830006DFF65620120A5610021666101F0D6FDB2
:1008400001200021656101F0D1FD65620120656133
:100850000021666101F0CAFD01200021A56101F0BF
:10086000C5FD00210120A66101F0C0FD7820FFF741
:100870004DFF0020FFF74AFF8020FFF747FF65622A
:100880000120A5610021666101F0B0FD0120002179
:10089000656101F0ABFD6562012065610021666163
:1008A00001F0A4FD01200021A56101F09FFD0021C0
:1008B0000120A66101F09AFD7820FFF727FF0020B4
:1008C000FFF724FFA820FFF721FF65620120A56143
:1008D0000021666101F08AFD01200021656101F0BF
:1008E00085FD6562012065610021666101F07EFD84
:1008F00001200021A56101F079FD00210120A66100
:1009000001F074FD7820FFF701FF0020FFF7FEFEE5
:100910001F20FFF7FBFE65620120A56100216661D3
:1009200001F064FD01200021656101F05FFD656259
:10093000012065610021666101F058FD0120002160
:10094000A56101F053FD00210120A66101F04EFDDB
:100950007820FFF7DBFE0020FFF7D8FED320FFF75B
:10096000D5FE65620120A5610021666101F03EFDB2
:1009700001200021656101F039FD6562012065619A
:100980000021666101F032FD01200021A56101F026
:100990002DFD00210120A66101F028FD7820FFF740
:1009A000B5FE0020FFF7B2FE0020FFF7AFFE656244
:1009B0000120A5610021666101F018FD01200021E0
:1009C000656101F013FD65620120656100216661CA
:1009D00001F00CFD01200021A56101F007FD0021BF
:1009E0000120A66101F002FD7820FFF78FFE0020B4
:1009F000FFF78CFE4020FFF789FE65620120A561AC
:100A00000021666101F0F2FC01200021656101F026
:100A1000EDFC6562012065610021666101F0E6FC84
:100A200001200021A56101F0E1FC00210120A66167
:100A300001F0DCFC7820FFF769FE0020FFF766FE7E
:100A40008D20FFF763FE65620120A56100216661CC
:100A500001F0CCFC01200021656101F0C7FC65625A
:100A6000012065610021666101F0C0FC01200021C8
:100A7000A56101F0BBFC00210120A66101F0B6FCDC
:100A80007820FFF743FE0020FFF740FE1420FFF719
:100A90003DFE65620120A5610021666101F0A6FCB2
:100AA00001200021656101F0A1FC65620120656102
:100AB0000021666101F09AFC01200021A56101F08E
:100AC00095FC00210120A66101F090FC7820FFF741
:100AD0001DFE0020FFF71AFE2020FFF717FE6562BB
:100AE0000120A5610021666101F080FC0120002148
:100AF000656101F07BFC6562012065610021666132
:100B000001F074FC01200021A56101F06FFC0021BF
:100B10000120A66101F06AFC7820FFF7F7FD0020B4
:100B2000FFF7F4FD0020FFF7F1FD65620120A561EC
:100B30000021666101F05AFC01200021656101F08D
:100B400055FC6562012065610021666101F04EFC83
:100B500001200021A56101F049FC00210120A661CE
:100B600001F044FC7820FFF7D1FD0020FFF7CEFD17
:100B7000A120FFF7CBFD65620120A5610021666120
:100B800001F034FC01200021656101F02FFC656259
:100B9000012065610021666101F028FC012000212F
:100BA000A56101F023FC00210120A66101F01EFCDB
:100BB0007820FFF7ABFD0020FFF7A8FDC820FFF766
:100BC000A5FD65620120A5610021666101F00EFCB2
:100BD00001200021656101F009FC65620120656169
:100BE0000021666101F002FC01200021A56101F0F5
:100BF000FDFB00210120A66101F0F8FB7820FFF742
:100C000085FD0020FFF782FDDA20FFF77FFD65629A
:100C10000120A5610021666101F0E8FB01200021AF
:100C2000656101F0E3FB6562012065610021666199
:100C300001F0DCFB01200021A56101F0D7FB0021C0
:100C40000120A66101F0D2FB7820FFF75FFD0020B4
:100C5000FFF75CFD0220FFF759FD65620120A561E9
:100C60000021666101F0C2FB01200021656101F0F5
:100C7000BDFB6562012065610021666101F0B6FB84
:100C800001200021A56101F0B1FB00210120A66136
:100C900001F0ACFB7820FFF739FD0020FFF736FDAF
:100CA0008120FFF733FD65620120A56100216661A7
:100CB00001F09CFB01200021656101F097FB65625A
:100CC000012065610021666101F090FB0120002197
:100CD000A56101F08BFB00210120A66101F086FBDC
:100CE0007820FFF713FD0020FFF710FD8F20FFF79E
:100CF0000DFD65620120A5610021666101F076FBB2
:100D000001200021656101F071FB656201206561D0
:100D10000021666101F06AFB01200021A56101F05C
:100D200065FB00210120A66101F060FB7820FFF740
:100D3000EDFC0020FFF7EAFCD920FFF7E7FC656235
:100D40000120A5610021666101F050FB0120002116
:100D5000656101F04BFB6562012065610021666100
:100D600001F044FB01200021A56101F03FFB0021BF
:100D70000120A66101F03AFB7820FFF7C7FC0020B4
:100D8000FFF7C4FCF120FFF7C1FC65620120A561FB
:100D90000021666101F02AFB01200021656101F05C
:100DA00025FB6562012065610021666101F01EFB83
:100DB00001200021A56101F019FB00210120A6619D
:100DC00001F014FB7820FFF7A1FC0020FFF79EFC48
:100DD000DB20FFF79BFC65620120A56100216661B5
:100DE00001F004FB01200021656101F0FFFA65625A
:100DF000012065610021666101F0F8FA01200021FF
:100E0000A56101F0F3FA00210120A66101F0EEFADC
:100E10007820FFF77BFC0020FFF778FC4020FFF7ED
:100E200075FC65620120A5610021666101F0DEFAB2
:100E300001200021656101F0D9FA65620120656138
:100E40000021666101F0D2FA01200021A56101F0C4
:100E5000CDFA00210120A66101F0C8FA7820FFF741
:100E600055FC0020FFF752FCA420FFF74FFC656201
:100E70000120A5610021666101F0B8FA012000217E
:100E8000656101F0B3FA6562012065610021666168
:100E900001F0ACFA01200021A56101F0A7FA0021C0
:100EA0000120A66101F0A2FA7820FFF72FFC0020B4
:100EB000FFF72CFCA620FFF729FC65620120A56145
:100EC0000021666101F092FA01200021656101F0C4
:100ED0008DFA6562012065610021666101F086FA84
:100EE00001200021A56101F081FA00210120A66105
:100EF00001F07CFA7820FFF709FC0020FFF706FCE0
:100F0000AF20FFF703FC65620120A5610021666147
:100F100001F06CFA01200021656101F067FA80227E
:100F200000219200024802F02BF9012070BDC0465A
:100F3000FC140020F8B5624B57469A46B02345464C
:100F4000DE464E469B46D024303BE0B59846802591
:100F5000240680264346B6056362012063610021B2
:100F6000666101F043FA01200021A56101F03EFA1B
:100F700000210120A66101F039FA7820FFF7C6FBB5
:100F80000020FFF7C3FB5846FFF7C0FB6562012056
:100F90000021A561666101F029FA01200021656147
:100FA00001F024FA6562012000216561666101F0AB
:100FB0001DFA01200021A56101F018FA002101208D
:100FC000A66101F013FA7820FFF7A0FB0020FFF7DD
:100FD0009DFB0020FFF79AFB656201200021A561BF
:100FE000666101F003FA01200021656101F0FEF95C
:100FF0006562012000216561666101F0F7F9012059
:101000000021A56101F0F2F900210120A66101F0A3
:10101000EDF97820FFF77AFB0020FFF777FB10202F
:10102000FFF774FB656201200021A561666101F094
:10103000DDF9564601200021656101F0D7F9803EB7
:101040003378802799464346BF0563620120636178
:101050000021676101F0CAF901200021A56101F0BA
:10106000C5F900210120A76101F0C0F97820FFF740
:101070004DFB4020FFF74AFB4846FFF747FB656200
:1010800001200021A561676101F0B0F9013601205E
:101090000021656101F0AAF95645D1D15B460133C3
:1010A000DBB29B4680239A465B46B244B42B00D009
:1010B0004FE7F0BCBB46B246A946A046F8BDC046C5
:1010C0007C150020F0B58022D64646464F460C00DF
:1010D000394B00218046C0B5180092009A4602F0B4
:1010E0004FF823780021002B08D03448203BDAB297
:1010F0003F2A49D963780134002BF7D12A230025F0
:1011000099462E4E0321280001F008FD4C46280088
:101110004C43032101F002FD4246AB00D258023499
:1011200013780130E4B2C0B2002B09D0C0015044A2
:10113000203BD9B23F290DD953780132002BF7D18A
:101140000135092DDED1FFF7F5FEE0BCBA46B14608
:10115000A846F0BD9900CB18995DF3185F7801554A
:1011600001194F709F7801328F70DF781B79CF7033
:101170000B7113780634E4B2002BE1D07A2CD7D966
:101180000135092DBED1DEE755469A00D3181A5C09
:10119000C3186A546A185D78013455709D78063119
:1011A0009570DD781B79D57013712378C9B2002B47
:1011B000A4D07A299AD9A1E7FC140020104E00107F
:1011C00010B50021002003F03DFB10BD30B5050037
:1011D00083B000200C0003F0FBF8002810D0082298
:1011E0000021684601F0CCFF6B4622001C709D7008
:1011F00001210020023303F007F90A2001F00AF967
:1012000003B030BD00B5002083B003F0E1F8002842
:101210000BD008220021684601F0B2FF6B46002285
:1012200001210020023303F0EFF803B000BDC046F7
:10123000004870478C4F0010002070477047C04630
:1012400000487047784F001000487047544F001016
:1012500070B5002822D0032829D8164B8000C55825
:10126000280003F055FCC0B2041C1F2814D8C02667
:10127000E4B2631CDBB25B00B6001E43002808D05A
:1012800000230D4AE95C01331180D9B202328C424D
:10129000F8D80A48068070BD1F24E8E7C126054B30
:1012A00002220548196801F071FFB600F1E700203D
:1012B000F1E7C046200E0020C2120020C01200201C
:1012C000D0231B061B68974A9900F0B54E46894605
:1012D00051585A4253412F2257464546DE465B42FB
:1012E00093439846904BE0B59C4683B0002701910C
:1012F000E044002939D08D4B0F269B464246FB081F
:1013000008339B009C5801233D009A460837002C67
:1013100022D031002140264218D05B464A469A58D6
:101320002B00EA40203BDB171340524613420DD1FD
:10133000072208002A40920090400200EB087C48F7
:101340003C339B001A502800019B98472409013523
:10135000002C01D0BD42DCD3202FCFD103B0F0BC94
:10136000BB46B246A946A046F0BD704B00200F22F6
:101370009B46C6083300414608339B005B5801007A
:101380000830002B00D1B2E017001F40BC461A42C3
:101390000FD04C465D460F002C59203FCC40FF1724
:1013A00027400124274204D16446614F3C36B600F1
:1013B000F4511E0900D19AE017003740324213D091
:1013C0004C1CA4465D464C462C5965460E00EC402C
:1013D0001F3EF61726400124264205D1EE08544C44
:1013E0003C363F01B60037511E0A00D17FE017009E
:1013F0003740324213D08C1CA4465D464C462C59D3
:1014000065460E00EC401E3EF6172640012426429B
:1014100005D1EE08464C3C363F02B60037511E0B54
:1014200065D01700374032420DD0CC1CA4465D4633
:101430004C462C5965460E00EC401D3EF6172640E2
:101440000124264257D01E0C51D014003440A4462B
:1014500032420BD04C46354E0F1D3659FE40B24637
:101460000E0054461C3EF60F26424BD01E0D3ED0B9
:1014700014003440A44632420BD04C462B4E4F1D34
:101480003659FE40B2460E0054461B3EF60F264229
:1014900040D01E0E2BD014003440A446324212D04D
:1014A0004C46224E8F1D3659FE40B2460E00544621
:1014B0001A3EF60F264206D16446FE083C36270641
:1014C0001B4CB60037511B0FCF1D002B0FD04C46C5
:1014D0005D462E590124FE401939C9173140214279
:1014E00005D1F908124E3C311B0789008B51202889
:1014F00000D03EE732E7EE080D4C3C363F03B60025
:101500003751A0E76446FF083C37BE00084F24046B
:10151000F451ABE76446FE083C362705044CB600A0
:101520003751B6E7A014002030410140381B00209D
:1015300000400140074B8000C3181B68C90092009F
:101540000A435A400C231340034A94466044036004
:101550007047C04604C0014004D00140D0231B06A0
:101560001B6830B50500584243412F205B4283433E
:101570000E48EC0884460720284080008140200067
:101580000B4D3C3063448000A40041511B19002ADC
:1015900005D08022920194466344196030BDC02278
:1015A0009201944663441960F8E7C0463041014017
:1015B00000400140F8B545469846D0231B06DE465C
:1015C0001C689B462B4B57469A46A3004E469946AD
:1015D000E0B5534616004A469B5807000D00002B05
:1015E00034D04346002B3FD053464A46414699509B
:1015F000D0231B061C6863425C412F2207206342F4
:1016000093431D4A38409446FA08110080008540F3
:101610003C311A486344890092000D509B18002EFB
:101620000ED0802292019446634401210D201D605A
:1016300000F014F9F0BCBB46B246A946A046F8BD7E
:10164000C0229201944663441D60F3E74346002B99
:10165000D1D0534641460D2099500022084900F050
:1016600039F95B461C68C6E70D20054900F02CFAE5
:10167000BAE7C046A01400203041014000400140BC
:10168000C11200100123D02283401206936293619D
:10169000094A83009A1811684022514080320A405A
:1016A0000649C0008C4663441A60054B9C460523DE
:1016B000604443607047C04604C0014004D001400C
:1016C000004001408023DB051868000F7047C046CA
:1016D0000FB400B5084883B001F0BAFE049B002B9C
:1016E00007D005A91800019101F05EFD034801F043
:1016F000AFFE012001F070FDC84C0010D84C001066
:1017000070B5EFF3108C72B60D4D2B68002BFCD02A
:10171000BFF35F8F0724CB08C618C05C01230C40C1
:10172000A3401C000440034207D118433070BFF3AC
:101730005F8F2C608CF3108870BD1000FFF7C8FF1E
:101740002C0100D0F8B54746CE46884680B5EFF369
:10175000108C72B6214D2C68002CFCD0BFF35F8F2B
:101760009A422CD8D4080727055D06190124174092
:10177000BC402C421FD007210127894609E0D4082C
:10178000055D06194C4639001440A1400C00294261
:1017900011D001329342F2D201204042BFF35F8F59
:1017A00000220E4B1A608CF3108800280FDBC0BC9F
:1017B000B946B046F8BD254310003570EEE7BFF3DB
:1017C0005F8F00232B608CF310880120404243463A
:1017D000002BECD00898FFF77BFFC0462C0100D00F
:1017E000044A1078431CDBB2172B00D91023137066
:1017F0007047C046300E002010B5064B064C82B034
:101800000100009318221F232000FFF79BFF02B066
:1018100010BDC046DC4C0010A81400200021044B71
:10182000044ABFF35F8F02C39342FAD17047C046A8
:10183000000100D0800100D0054B064A1360064A23
:10184000136053609360D360136153619361704779
:101850008080808000E400E004E400E01F23184062
:101860001E3B8340002905D0C021044A4900535043
:1018700013607047802201498B50FAE700E100E0D5
:1018800070B50D00EFF3108672B60F4A1368002B87
:10189000FCD0BFF35F8F0D4B10309B6884001B5949
:1018A0000B4A934203D09D4201D001F00DF8074B43
:1018B0009B681D51BFF35F8FBFF35F8F0022024B08
:1018C0001A6086F3108870BD240100D000ED00E09E
:1018D000C1010010F0B557464E46DE464546E0B51C
:1018E00085B0060000911700EFF3108B72B66A4ABC
:1018F0001368002BFCD0BFF35F8F0025674B5D574B
:101900009A46002D00DAA9E06B00654C01935B1943
:101910009B009846A146C1444B4652469B791036DF
:101920001370604BB6009B6899590B1B2F2B33D952
:101930005D4B994200D0ACE0019B42469C465B4B1C
:101940006544AD0063535A4B0232A218043B9B1A04
:101950001B05584A5B0D651913436B80564B0121DB
:10196000AB80FF23AB71009BEF71AB604B460B4329
:1019700019004C4B9B689951BFF35F8FBFF35F8F8A
:101980000022454B1A608BF3108805B0F0BCBB46B3
:10199000B246A946A046F0BD01200A008243D37991
:1019A0008C46BB4231D84546130044491B1B5B4162
:1019B0005943090D3D4B63533D4B02356519043BBB
:1019C0005B1B1B053B4D5B0D2B43AA464D466B80B5
:1019D0000425AC465546E044131F44441B1B1B051D
:1019E0005B0D1D434B46997100999D809960494656
:1019F000DF71334B01431360BBE75800C018800010
:101A00002018C179B9422FD902000623D356002BE2
:101A1000F3DA02932B4B61460393131D9A4604237A
:101A20005B429C46E14450464B461B1A1B055B0D2E
:101A30009C46204B957198466346404603439380ED
:101A4000019B5A199200039BA418A380029B1C4A75
:101A5000A371009B2260E771A3608AE700F034FF66
:101A6000002553465D574FE7908802934005131DAC
:101A70009A46031561469C464046D444634604306A
:101A80002018181AE0230005400D1B02184303908C
:101A9000C5E700F019FF4FE7240100D0521B0020DA
:101AA000340E002000ED00E0C101001000A1FFFF96
:101AB000640E002000E0FFFF01BDFFFFAAAA0000A6
:101AC0000148804701BD0000F0B5DE4657464E464E
:101AD0004546E0B50C0083B0EFF3108872B6634A58
:101AE0001368002BFCD0BFF35F8F614B61499A688C
:101AF000030010339F00D55900938D4243D0A54277
:101B000054D05D4EAA1B2F2A3DD85C4B9C461B68C7
:101B10009A4601231A0099468240534613401F22D9
:101B200001934B46024093409A46802263465046BA
:101B30009850BFF35F8FEFF305839B46002B37D0A0
:101B4000009B5B4501D000F0BFFE2A004B469A4344
:101B50009068844208D177E04B005B189B00F31833
:101B60009868844236D01A00062151560029F3DACB
:101B7000844255D0019B002B27D0C02251463F4BB9
:101B80005200995019603A4B9B68DD51BFF35F8F4B
:101B9000BFF35F8F0022354B1A6088F3108803B0C3
:101BA000F0BCBB46B246A946A046F0BD0D00EAE730
:101BB0002A004B469A4390688442D5D1062010569D
:101BC000130000280ADA0D0032E0802351462B4A28
:101BD000D150D8E706201856002822DB4200111801
:101BE000890074188946A1689960E179D971062144
:101BF00061569971002925DBA488F11A6405241522
:101C00004C440919E0240905490D24022143998017
:101C100013181B4A9B001178F31899711070A9E7EB
:101C200013005946002914D1FF3191711549918053
:101C300013490A789A71144A9B1B5B415A43120D4F
:101C40000A7097E71149E2E70620105613000028B2
:101C5000C4DA0F4A0F49D21A083A5002400D014324
:101C600099800D4952080A43DA8083E7240100D0A5
:101C700000ED00E0C1010010340E002000E100E0A2
:101C8000521B002001BDFFFFAAAA000001BD0000F9
:101C90006E0E002000F0FFFF00F8FFFF70B501247A
:101CA0000443EFF30581EFF3108C72B6214A1368F9
:101CB000002BFCD0BFF35F8F1F4B05001F4AED1AAE
:101CC0006D416A43120D1E4D8900AE6852B27658BE
:101CD000A6421CD00621595691421CD012215956B9
:101CE000914222D01E215956914220D02A21595684
:101CF0000324914210D0134B19781A708171BFF3ED
:101D00005F8F00220B4B1A608CF3108870BDAB689C
:101D10000D4C5C50EFE700246100091989005B1845
:101D2000FF21997109499980E5E70124F4E702242C
:101D3000F2E7C046240100D0340E0020AAAA000019
:101D400000ED00E0521B0020C101001001BDFFFFAB
:101D5000024B9C466144890001607047400000349A
:101D600070B5114C114DAC420FD2FF262368002BE9
:101D70000CD0FFF735FD01002000FFF7E9FFA6803A
:101D8000BFF35F8F0834AC42F0D370BDFFF728FD7E
:101D900001002000FFF7DCFF2671BFF35F8F0834DE
:101DA000AC42E3D3F1E7C046E00E0020E80E00208D
:101DB00010B50400FFF714FD01002000FFF7C8FF75
:101DC000FF232371BFF35F8F10BDC04610B5040021
:101DD0000120FFF711FD034BC3189B002360BFF3E5
:101DE0005F8F10BD400000340A4B1968EFF310807C
:101DF00072B60A68002AFCD0BFF35F8F1B68BFF37E
:101E00005F8F00221A6080F3108840BF00200021FD
:101E10007047C046441B0020F0B5DE4657464E468C
:101E20004546E0B583B0EFF3058203231340B54A7E
:101E3000990052580091904601229A409346B24B25
:101E40001A60B24B01935B46B14843634346082294
:101E50009B5E9946002B3ADA43469B881BB2002BC7
:101E600000DB9DE043469B79002B00D0E1E0434638
:101E700008241C5F002C20DB43465A6963001B19B1
:101E8000DB00D3189D68DC686B1C00D103E1A0481F
:101E9000009984466144826A0B69AE1A9B1A9E427D
:101EA00013D35A46036A1A420FD0994800F054FBE4
:101EB0008C4202DCC7D18542C5D940BF03B0F0BC1B
:101EC000BB46B246A946A046F0BD0D61EDE74246CD
:101ED00052695B0092464B44DB009A4453469E682D
:101EE000DF6800F039FB8F42B6DC00D1F8E0002F4C
:101EF00000DAD9E05246534654691B69019A93426D
:101F000000D1CCE0414652460820085E52880004C9
:101F100021001043984704000D0023002B4300D1FB
:101F2000C2E0002D00DBDFE030003900001BA941DA
:101F300053469860D96000229A5E002A00DA8BE747
:101F400043465D6953009C18E4002C19A768E468B7
:101F50008C4200DD80E702D1874200D97CE746460B
:101F6000328108360DE08C4200D1C6E01E0000230D
:101F7000F25E002A0ADB53009C18E4002C19A768C3
:101F8000E4689B18DB00EB188C42ECDD53461A80AA
:101F90004B46338043469B881BB2002B00DA61E737
:101FA00043461A69EFF3108172B61368002BFCD018
:101FB000BFF35F8F43469E88012342465B42938076
:101FC00036B21369BFF35F8F00221A6081F3108865
:101FD000002E00DA46E743465D69083342469C46D8
:101FE0007700BF19FF00EF19BB68604698460823C9
:101FF000D15E9246FC68002907DA0EE0A24246D084
:1020000018000023C15E002906DB4B005B18DB00D3
:10201000EB18DA68A242F1DD524606800023FE5E2C
:102020003980002EDCDA904643469B79002B00D1A4
:102030001DE7002342469371434646460821595EF8
:1020400008364B1C00D138E747468946556902E0FF
:1020500006004B1C18D04B005B18DB00E8180A0088
:102060008C46E95E43881BB2002BF1DA01235B4208
:10207000DC178360C4604A4503D031803B8903800C
:102080003A81E1464B1CE6D1B8464C46F2E69A68E6
:102090004245B5D9C0E7631C00D0F8E605E720004B
:1020A00023699847002825D1534642461B8813814F
:1020B0001269EFF3108372B611680029FCD0BFF3E8
:1020C0005F8F4246514652880A80424649465180B7
:1020D0001269BFF35F8F0021116083F31088BBE6A4
:1020E000864200D803E7B7E6094800F035FA001940
:1020F00069411DE7656824680FE7874200D835E726
:1021000044E7C046281B00203C700540191E001003
:102110000040054070B52E4C2569002D04D00A21E1
:102120002C48FFF715FE70BD2B4E0321300000F048
:1021300009FAE660FFF754FB284B03229C46D023A4
:1021400022701B061B6801216370254B6044A3604D
:102150000F23800020610220638063694942A180CF
:1021600019800231198647311D83585218315A524D
:1021700075325C3999521832013199521832013155
:102180009952183201319952083518329D52023154
:10219000183299521832013199521832013199523C
:1021A00018320131995218320131995218320131E5
:1021B00099520C4B0C49DC6001303562FFF760FB33
:1021C00001210320FFF74AFB084B1D60A7E7C0462B
:1021D0007C0E0020441B00200040054040000034DD
:1021E000FFFF1000281B0020191E0010386005405A
:1021F00070B501000469EFF3108C72B620680028F6
:10220000FCD0BFF35F8F02200D5E4C69680040195F
:10221000C0002418002D37DB208848800869BFF3F0
:102220005F8F002606608CF31088E3606388049853
:10223000013320615B0405985B0CA26060611A1C8D
:10224000002B1FD093B22804628018430A69EFF371
:10225000108C72B61368002BFCD0BFF35F8F8B8895
:1022600023808D800B69BFF35F8F00221A608CF38F
:1022700010880B7801329A40CB6808498C46634439
:102280001A6070BD0122DDE70B69BFF35F8F00228A
:102290001A608CF3108801204042F2E73C200000D5
:1022A00010B543890A1493421ADD53009B18426902
:1022B000DB00D3180469EFF3108C72B62268002A91
:1022C000FCD0BFF35F8F5A88090494B2090C8A428C
:1022D00008D00369BFF35F8F00221A608CF3108867
:1022E000002010BD8022120214435C800123026989
:1022F0008371BFF35F8F002111608CF31088044954
:1023000002788C469340C268012062441360E8E77B
:102310003C200000F0B504000D0006267642F717B9
:10232000C64636196F4100B582B08F4214D811D01D
:1023300000F01AF932003B00121A8B41002B17DC17
:10234000002B47D02000290000F018F902B080BC13
:10235000B846F0BD8642EBD90022002316001F00CC
:1023600000F002F932003B00121A8B41002BE7DD2E
:1023700000F0FAF832003B00121A8B41002B0ADB06
:1023800000230193154B3200009315483B00FFF7E3
:102390002FFF0028D6DB00239C46B046114A124E80
:1023A000736A9F4204D8B16A8845CBD99F42C9D18C
:1023B0001168EFF3108072B60B68002BFCD0BFF3EE
:1023C0005F8F1368BFF35F8F6146196080F31088D9
:1023D00020BFE5E7002AB5D0CAE7C046E91D0010D6
:1023E0007C0E0020441B00200040054070B5040016
:1023F0000D0000F0B9F88023001969411B069942CD
:1024000002D3012002494042FFF784FF70BDC0465D
:10241000FFFFFF7F70B5060000F0A6F8FA22040067
:102420000D00002330000021920000F03FFE8023C9
:10243000001969411B06994202D30120024940421A
:10244000FFF768FF70BDC046FFFFFF7FF0B5D646BF
:102450004F464646C0B504000D0082B0EFF3058735
:102460008946002F0ED0344900204B6AAB4203D37B
:102470008A6A0130A24226D302B0E0BCBA46B14615
:10248000A846F0BD2D4B9846DB689A464346504619
:102490001E7800F061F80B00514602000436B600C9
:1024A000715820008E1A2900801A99418F4211DC40
:1024B0000ED020BF204A0020536A4B45DCD3926ADD
:1024C0000130A242D8D25B1B5A1E9341D8B2D3E747
:1024D0008642EED900F048F822002B00121A8B41F8
:1024E000002B1ADB00230193154B2200009340467A
:1024F0002B00FFF77DFE011E0FDD0F4B5A6A4A4588
:1025000017D39B6AA34212D34046FFF7C9FE0A4A7B
:102510000020536A4B45AFD3D1E7074A0020536AE6
:102520004B45A9D3926A0120A242A5D2CBE74A45E6
:10253000EAD120BFE8E7C046004005407C0E0020FD
:10254000E91D001010B5024A0248FFF7D9F810BD86
:10255000F84C0010AC1400200300416A0A00986A8D
:10256000596A8A42FAD17047034B596A0A00986A3D
:10257000596A9142FAD1704700400540064A536AB1
:102580009942FCD807D1044B02E05A6A914202D129
:102590009A6A8242F9D3704700400540F8B5DE469A
:1025A0004E4657464546E0B58B4605000A99180049
:1025B000160000F0DBFA0A9B6C001F02324B641914
:1025C0009C46A4006444636881469F4200D96760CA
:1025D0002B1FDBB29846012B30D9C02380229B01F0
:1025E000E31812011A60294BAD0059599A46002987
:1025F0001BD17301E026226853401E4080234246CF
:102600005B01E3181E60012A30D9802380229B01E0
:10261000E31812011A6053464A4667605A51F0BCEB
:10262000BB46B246A946A046F8BD586900F09EFADE
:10263000013043001B18033BFDD2DAE75B46012B58
:10264000CBD1C02303229B01E3181A60023AA3688E
:102650001A42FCD07301E0262268AD0053401E40B0
:1026600080230A4A5B019246E3181E605A4621689D
:10267000514003220A401A6001225B469A40A36837
:102680001A42FCD0C1E7C04600800040B0140020D0
:10269000F0B546464F46D646C0B51F00344B440001
:1026A0009C462418A4006444636888461600FF2BE7
:1026B00002D880235B006360031FDBB29A46012BC4
:1026C00030D9C02380229B01E31812011A60294BE4
:1026D00085005959994600291BD17301E0262268CB
:1026E00053401E40802352465B01E3181E60012ABE
:1026F00030D9802380229B01E31812011A608023C5
:102700005B0063604B465F51E0BCBA46B146A846E9
:10271000F0BD586900F02AFA013043001B18033B52
:10272000FDD2DAE74346012BCBD1C02303229B0124
:10273000E3181A60023AA3681A42FCD07301E0263B
:102740002268850053401E4080230A4A5B0191465F
:10275000E3181E6042462168514003220A401A6075
:10276000012342469340A2681342FCD0C1E7C04611
:1027700000800040B0140020014B8000C05870471A
:10278000B0140020F8B5040021481E0017000D0009
:1027900000F0ECF90100380000F0E8F9069B36047F
:1027A0001B031E432368002B20DB1A4B1A49E31836
:1027B0005A1E93418022920194465B421B0B174A9A
:1027C0001B0363441360164A13601F000A68974393
:1027D000FBD1144B2560E2182123A060136023680D
:1027E000002BFCDA0823E6601360F8BD3F23226863
:1027F0001340AB42D9D1A3681B051B0D8342D4D132
:10280000EE22E368D2021340B342CED1EDE7C046D8
:10281000001BB7000040FDBF08C0004000E00040C2
:1028200000F00040043000008023024A9B000B436C
:10283000D362704700800540142310B5010018884A
:1028400004331B88984710BD162310B50100188863
:1028500002331B88984710BDF8B54746CE4680B571
:102860000F1E19D0142399460433040000250126B5
:1028700098464B461888434621681B88984701C4F0
:10288000431E9841013540420640AF42F1D130002D
:10289000C0BCB946B046F8BD0126F8E7AA23064AEF
:1028A0001B0113608D235B00D3600449044B196046
:1028B0005368002BFCDA70470040024000B0FA0079
:1028C000006002407047C04610B50148FEF700FFA7
:1028D0001C4D001070B5074D074EB54209D20024BB
:1028E000013E761BB60808CD984723000134B34259
:1028F000F9D170BD104C00104C4C0010054B064A2D
:1029000006491A60064A074B1A6010000B68984384
:10291000FBD1704700E00040BFCDFBFE08C0004087
:10292000FE7F3C0000F00040044BDB6C002B03D129
:102930008022034BD2021A607047C046000011503B
:102940004C201150044A054B1A60054A1368DB01FC
:102950008033FBD17047C046FFFFFF0100F000400D
:1029600008C000404022034B9A675A671A67DA662C
:102970007047C04600F0014010B5FEF74FFF10BD94
:10298000F8B52749274C284D641AA6103200302E7E
:1029900000D930222800920000F0F8FBBC2C3BD874
:1029A00030202F232C196407204A801BE40F9B1B27
:1029B000052B16D93700002C02D0B300771CEA5043
:1029C000001B33199B004108EB18C900C9181A6095
:1029D0005A6008339942FAD1012303421CD098432C
:1029E000C619B300EA50731C2F2E15D09B00EA5075
:1029F000B31C2E2E10D09B00EA50F31C2D2E0BD0B2
:102A00009B00EA50331D2C2E06D09B00EA50731D0C
:102A10002B2E01D09B00EA50054B9D60F8BDC046AF
:102A200000010010C001001000000020C1010010D2
:102A300000ED00E0002310B5294C82B0A367FFF73A
:102A40002DFF0122274B1A60636C012BFCD103225E
:102A5000254B1A60224A936B012BFCD10133009362
:102A60000121224A22480433FFF78CFE052301216D
:102A70000093204A2048FFF785FE0022022104200F
:102A80001E4BFFF705FE0022012105201C4BFFF71E
:102A9000FFFD0022002107201A4BFFF7F9FD00225D
:102AA00000210820174BFFF7F3FD8023DB00009384
:102AB000002200210920134BFFF770FD0022104B6C
:102AC00000210620FFF7E4FD0420FFF755FE0E4924
:102AD00000F04CF801000020FFF7A6FE02B010BD88
:102AE000008000403CB0004030B00040002F6859EA
:102AF00000800240008C864700C00240001BB700E7
:102B000040597307006CDC0240420F000148042169
:102B1000014B1847A00E002059280010124A936F4D
:102B20009B0815D29066D166002905D0FFE7FFE724
:102B3000FFE7516F106F704704B580210906C21777
:102B40005140002800D0C84302F02AF8002104BDFB
:102B5000F0B5146E556E576F166FFFF7E3FF1466EE
:102B6000556657671667F0BD000000D0114A936F95
:102B70009B0813D210665166002905D0FFE7FFE7D6
:102B8000FFE7516F106F704704B5002801D0002097
:102B9000C04302F005F8002104BDC046F0B5146E34
:102BA000556E576F166FFFF7E5FF1466556657674A
:102BB0001667F0BD000000D094464A4A926F920812
:102BC000624601D228E0C046F0B5464E346E756EBE
:102BD000776F366F00F020F89446424A14665566C7
:102BE000576716676246F0BD94463E4A926F920858
:102BF000624601D254E0C046F0B53A4E346E756E6E
:102C0000776F366F00F04CF89446364A1466556676
:102C1000576716676246F0BD002B24DB11D00029F0
:102C20003EDA00B5C943404200D1013100F038F826
:102C3000C943404200D10131DB43524200D101334C
:102C400000BD002AEBD1002801D1002905D00020C9
:102C5000C90FC90701D1C043410800B501F090FF79
:102C60000022002300BD00B500290ADBDB435242ED
:102C700000D1013300F014F8C943404200D10131C2
:102C800000BDC943404200D10131DB43524200D173
:102C9000013300F005F8DB43524200D1013300BD9F
:102CA000002923D1002B18D1002A0CD0BC460D4F8F
:102CB00038667A6600210023FFE7FFE7FFE77A6FB7
:102CC000386F67467047002801D00748010000B5FB
:102CD00001F056FF0022002300BD02000B0000207F
:102CE00000217047000000D0FFFFFFFF002B00D045
:102CF000BFE0130C28D1002AE7D080B4114F396609
:102D00007A66FFE7FFE730B4040C7B6F396F1B0472
:102D100023433B667A66FFE7FFE7FFE7C04684B2DE
:102D20007B6F3D6F1B0423433B667A66FFE7FFE73B
:102D3000C04600232C042D0C7A6F386F00196941AE
:102D4000B0BC7047000000D0F0B594460025140ECA
:102D500001D112020835140F01D112010435940F6C
:102D600001D192000235D40F01D152000135D40BAC
:102D70000134254F7C66254C3C660E0C93B2FFE770
:102D8000FFE7FFE73C6F6643360C7703BE467343AD
:102D9000DF0B5B04C01AB941130C7343DB18C91A6B
:102DA000CE086643360CB64493B273431F0F1B0123
:102DB000C01AB941130C73431F0B1B05C01AB9414C
:102DC000860D8F023E436643360C092D24DB520AE2
:102DD0007243801A7703460A6643360C16235B1B40
:102DE000DE40DF40BF1964466643821B70460435EF
:102DF00006330100D940A840C01900D30131A242D6
:102E000006D20023F0BD0000000000D0FFFFFFFF4E
:102E1000121B0130F3D3F1E709277F1BFE40644604
:102E2000A2B27243801A00D20139220C7243130CF1
:102E30001204821A99410B007046043513370100C1
:102E4000F940A840801900D30131002B02D1A242E1
:102E50000AD2F0BD013000D30131121BFAD2013B7E
:102E6000F8D1A24200D2F0BD013000D30131121BD3
:102E7000F7E7F0B51C0C00D080E00CB400251C0A6C
:102E800004D11B02160E3343120208351C0B04D169
:102E90001B01160F3343120104359C0B04D19B0018
:102EA000960F334392000235DC0B02D192185B413E
:102EB00001351C00971864410134464F7C66464C2E
:102EC0003C660E0CFFE7FFE7FFE7C0463C6F66433A
:102ED000360C7703BE4697B27743C01B00D2013948
:102EE000C01B00D201399FB27743C91BC91B170C05
:102EF00077437E04FF0B801BB941CE086643360C36
:102F00000C2D33DBB644120B1F053A431B0B97B253
:102F10007743C01B00D201399FB27743C91B170CFE
:102F200077433E043F0C801BB941860D8F023E4320
:102F3000664329277F1BFE400C3D7746AF40BF19F3
:102F400030BCA2B2ABB272437343801A9941220CD7
:102F50007243130C1204801A994102000B000137CE
:102F6000001BA941F9D2781E0021F0BD0C277F1B60
:102F7000FE4077467F0BAF40FF19E0E700245D1C61
:102F800007D0144F7D663966FFE7FFE7FFE7FFE7ED
:102F90003C6F95B29EB265436643401BB141150C30
:102FA0001E0C6543664336042F0C3E432D04401B24
:102FB000B141994204D202000B0020000021F0BD73
:102FC00001D19042F7D3801A994101349942F2D34A
:102FD000F6E70000000000D0FFFFFFFF132370B5ED
:102FE0001D78012D19D014DD1F48FFF72DFC0600B8
:102FF0001E48FFF729FC1E4C80223100200000F003
:10300000C5F8022D2DD01B48FFF716FC1A4B18608F
:1030100070BD1A4B164CA364F5E7184B144C236093
:103020006360A360E36023616361A361E361236282
:103030006362A362E36223636363A363E363236462
:103040006364A364E36423656365A365E365236642
:103050006366A366E36623676367A367E367A364A6
:10306000D1E7064BA364CEE753440000534600006B
:10307000681000204C330000401B002081300010FD
:1030800007B5604601880A0A0230DF2AFAD1C9B2C0
:10309000820804D3028840880004104300E00068DE
:1030A000014A5050039007BD68100020514343432C
:1030B000C9188C46110C83B24B4310B4040C614305
:1030C00092B280B2504362431C041B0C001910BC26
:1030D00059411304120CC01851416144704700005B
:1030E000132310B512481C78FFF7AEFB0100012C2A
:1030F0000AD003DD80220F4800F048F80E48FFF7A1
:103100009BFB0E4B186010BD0A4C5422200000F0AF
:103110003DF80B4B6365A365E36523666366A366B1
:10312000E36623676367A367E3672362E361E5E719
:1031300053460000681100204C330000401B002063
:103140004531001007B5604601880A0A0230DF2ABF
:10315000FAD1C9B2820804D302884088000410431F
:1031600000E00068014A5050039007BD681100203C
:1031700001480421014B1847B00E002059280010C7
:10318000014B1B6818470000B00E0020014B5B6824
:1031900018470000B00E002010B5002800D110BD67
:1031A00000F00AF9FBE7C04610B5094A03001468AD
:1031B00084B0002C08D0012200910648524203A995
:1031C000A047012004B010BD00F042F90020F9E74B
:1031D000081B00209931001000BEFDE710B5FFF775
:1031E000FBFFC04670B5FFF775FB074D074EB542B4
:1031F00009D20024013E761BB60808CD984723006B
:103200000134B342F9D170BD4C4C0010504C001049
:10321000030010B5080011001B68984710BDC04698
:10322000F0B5C64600B5437D07000D001600002B23
:1032300038D0002A2EDD00216A1E90466A5C037D8C
:103240004C1C00200A2A0CD0A64216D043461B5D17
:1032500021000D3B5A4253416A5CDBB24C1C0A2AE6
:10326000F2D1002BF0D1884217DB022110483B68D5
:103270009847A64207D02000E8E7864203DD311ACE
:103280003B6828189847AD19013D2B780D3B5A42F1
:1032900053413B7580BCB846F0BD091A3B682818FD
:1032A0009847E2E70368110028009847F2E7C04614
:1032B0003C500010F0B5DE4657464E464546E0B558
:1032C00085B017001C0006000D00FFF74DF9002324
:1032D000314A12184B41802109068B4202D3012248
:1032E0002E4B52422E4908008A4601F079FC01908B
:1032F0006B1C03D1300001F00BFC0500002C26D024
:10330000284B9846284B1C68002C15D0002F21D143
:10331000264F02E02469002C0ED02368002BF9D040
:103320003B68002B01D09C42F4D120002A003100E0
:10333000C0472469002CF0D1019B002B28D1280024
:1033400005B0F0BCBB46B246A946A046F0BD184B3E
:103350009846D7E7154B994602ABDF1D0A239B46DB
:1033600002E02469002CE7D02368002BF9D04B46FB
:103370001B68002B01D0A342F3D12A0031002000AA
:10338000C0475B460122390020003B70C047E8E798
:10339000504601F0EDFBD2E740420F00FFFFFF7FF8
:1033A000E00E002021320010FC160020041700203F
:1033B0001132001000207047F0B5CE46474680B568
:1033C00083B06B460600DD1D2870FFF7CDF80023A3
:1033D0001A4A12184B41802109068B4202D301225E
:1033E000174B524217490800884601F0F9FB164B6B
:1033F00081461C68002C14D0144F02E02469002C74
:103400000FD02368002BF9D03B68002B01D09C42E1
:10341000F4D1200001222900FFF702FF2469002CCB
:10342000EFD14B46002B05D1300003B0C0BCB946EC
:10343000B046F0BD404601F09BFBF5E740420F006F
:10344000FFFFFF7FE00E0020FC1600200417002085
:1034500070B5040001F05CFB0123010005000122AE
:103460002000FFF727FF084B1C68002C06D063687C
:10347000002B05D098472469002CF8D1280070BD96
:103480002469002CF3D1F9E7FC160020F8B500F010
:1034900043F90C23194DFF22AB6705201849FEF7AD
:1034A00019FA184C402200212000FFF769FE40273E
:1034B000002301262121144A66702783A26013602D
:1034C00063545F31618445396354104A1049636025
:1034D000E2602787A1620B606362E26201F058FB41
:1034E00080239B052E64EB6490230A4A0120EA5056
:1034F0008022094B5202DA64F8BDC0460000115028
:103500001D030020081700208400105000011050F7
:103510008000105010D001000020115010B5012182
:103520000520FEF79BF910BD10B5002200210248CE
:1035300000F012F910BDC04628170020044B197086
:10354000002904D080219023024A8902D15070477B
:103550004D1B0020002011500B785B0602D14B78E8
:10356000052B00D070478A78014B1A60FAE7C046F5
:1035700000001150F0B5C646C87800B58007830F2B
:103580001800012B60D08F780A794B797F21394060
:10359000FC091B024E001343334D32195201AA1885
:1035A000977001276740577000275B055B0DD77048
:1035B0001383D076B846CA00012C32D02B4FBC46BC
:1035C0008F016244BC46AC446746BA604746176008
:1035D000002932D0264AC9009046624641445160D3
:1035E0003F223F339343022837D0224937190A68D4
:1035F0007F01D3180B602049EF19FA608B422ED857
:1036000036197601AD19EB7E1C499B064A401343DF
:103610008022120613436A681360012080BCB846FA
:10362000F0BD174FBC468F016244BC46AC446746B0
:10363000BA6247461760002908D1002364012C199B
:103640006360104BE360E8E70020E7E70B4AC9003E
:103650009046624641445162C2E75B00C5E7FFF70E
:1036600033F9FA68CCE7C0460817002084001050F0
:10367000040010500C1B0020FF0F105000001050D1
:10368000800010500001105010B501F081FA10BDFB
:1036900010B57F200C0020404000E4091100001903
:1036A0001A00034B4001C01800F056F8012010BD6D
:1036B000081700207F23180010B50840CA090B42E4
:1036C00003D107497D3B9B1A8B66400080188022FE
:1036D000044B40010021C018120101F091FA10BD05
:1036E00000201150081700207F22130010B50B4056
:1036F0000A4200D110BDC9095B005B1804485B0198
:10370000C018002300220349C37001F079FAF1E7E1
:1037100008170020FFF7FFFF80220A4B520410B564
:103720001A60094B09491A6010000B689843FBD1D5
:103730008022002152010648FFF722FD0922054B95
:103740005A6710BD00E0004000F0004008C0004093
:103750000000105000001150002310B5C382013347
:10376000828283760161040001F022FA002804D0ED
:1037700080219023074A8902D150200001F028FAC5
:10378000002802D00123237710BD200001F030FA79
:10379000FAE7C04600201150002070477047C0462D
:1037A0007047C046002070470020704700207047D7
:1037B0007047C0467047C0467047C0467047C04615
:1037C000024B5878431E9841C0B2704784130020C2
:1037D000024B18784007C00F7047C0468413002082
:1037E000F0B5D6464F464646C0B52F4B07009A4621
:1037F0001B780E00FF2B01D0012041E000293ED0B4
:10380000002154222948FFF7BBFC0022284C294BF9
:1038100020001A70FEF7CCFA274B1C60274C2000C2
:10382000143CFEF7D3FA200001F052F9244B254D49
:103830001C60254B002B28D0280000E000BF234B44
:1038400018602B78224A00249146204A90460EE0C8
:1038500043461B6862019B18002B10D05B68002B4D
:103860000DD0984701342B78E4B2A3420FD3A34282
:10387000EED8E31A5B014B445B68002BF1D10020CA
:10388000E0BCBA46B146A846F0BD2B78DAE753460D
:10389000310038001F70FFF7F9FD0028EFD0380025
:1038A000FFF73CFE0120EBE7DC0E00208413002034
:1038B0007C1300204E1B0020D8130020D40E0020C3
:1038C000DC1300204C1B00200000000068120020C8
:1038D000E8500010F0B5DE4657464E464546E0B586
:1038E000CA4B8FB003931B78FF2B00D146E1C84B26
:1038F000C84E9B465F46C84B0BAC0293C74B019327
:1039000035686A69EFF3108172B61368002BFCD03A
:10391000BFF35F8FA9612800210001F037F86A69C1
:10392000AB69BFF35F8F0021116083F3108800281B
:1039300000D123E16378082BE2D89B00FB589F4617
:103940006368002BDCD0A0689847D9E77F222179F3
:10395000B14D0A405300EB189846C80980444046D0
:103960000123303005799D430571057903339D436B
:103970000571002A00D108E14346A94A1B7D12784F
:10398000934200D3F8E0A74A5B011568ED18002DBB
:1039900000D1F3E0A36862792078AD69A847AFE76A
:1039A000A14A1378002B00D1E8E01378013BDBB289
:1039B00013701378002BA3D10122974D01212B788E
:1039C000042013432B703423EA5C8A43EA54EA5CF4
:1039D0008243EA540133EA5C8A43EA54EA5C824354
:1039E000EA5423780020984600F060FC6022237996
:1039F0001A40602A00D1F3E0402A00D1F9E0DB064A
:103A0000DB0E012B00D117E1022B00D1CCE0002B03
:103A100000D0E5E0202A00D10FE2002A00D0DFE04C
:103A20006379092B00D9DBE0804A9B00D3589F467D
:103A3000794D2B78DB0700D462E7FFF7BFFE5FE725
:103A4000029BDB78DB0700D45AE76068FFF7A8FE2B
:103A500056E7714D2B78DB0700D451E72878000733
:103A6000C00FFFF7A9FE4BE723786C4A98469346B0
:103A70006B4B6C4A9946310092463A0046464F4697
:103A80000025914688461B780EE053461B686A0164
:103A90009B18002B00D17EE0DB6830009847013591
:103AA0003B78EDB2AB420CD39D42EED3EB1A5B01F7
:103AB0005B44DB683000984701353B78EDB2AB42A0
:103AC000F2D2554D542200212800FFF759FB102255
:103AD000FF21281DFFF754FB28002022FF2114306E
:103AE00046464F46FFF74CFB00F0D6FB2379AB7000
:103AF00006E723784B4A9846494B9246994632004E
:103B0000BB46464600254F4690461B780DE053467F
:103B10001B686A019B18002B41D0DB683000984776
:103B200001353B78EDB2AB420ED3AB42EFD8019AF0
:103B3000EB1A94465B016344DB683000984701351B
:103B40003B78EDB2AB42F0D2029D54220021280016
:103B5000FFF716FB1022FF213548FFF711FB280065
:103B60002022FF21143046465F46FFF709FB00F094
:103B700093FBFFF71FFEC3E6934213D00FB0F0BCD8
:103B8000BB46B246A946A046F0BDA368627920783C
:103B900000F0A0FBB4E646464F461F4DA4E746465C
:103BA0005F46E4E71D4DF5E67023217A0B4217D1FD
:103BB000C80983460F330B405B0099461848EB1841
:103BC0005B441B7D0078834261D216485B0100682C
:103BD00082469A44002A00D14EE15346002B5ED122
:103BE00020780021FFF766FD80212078FFF762FD35
:103BF00086E6104800F05AFB012140460CAAFFF768
:103C0000CBFD002800D07BE6EAE7C046DC0E0020B2
:103C100040500010DC13002084130020E8500010F6
:103C20004C1B0020681200204E1B00206450001026
:103C30008813002099370010237A0F2BD0D8D54A4B
:103C4000EB181B791278934234D3C9D1D24D6869ED
:103C500000F02CFB012140466B690CAA9847002814
:103C600000D04DE66022150023791D401A42B7D1DD
:103C700063790A3B012BB3D800F018FB63790A2B58
:103C800000D17DE140460CA900F09AFA38E6834263
:103C900000D0ECE0C04B9A46002A00D1ECE053463D
:103CA000586900F003FB5346012140465B690CAAAA
:103CB0009847A6E7B94A5B011568ED18002DC6D1F3
:103CC0008EE7A3799A466B789A45DBD06B78002B08
:103CD00000D028E153466B70002B00D120E1504604
:103CE0000138C0B2FDF7B0FA002800D171E1437885
:103CF000022B00D06DE10122C179A9468B11491137
:103D000013400A40302112015B0113432A788A4391
:103D100013432B7009239B4683445D46B346C37807
:103D200082781B021343C31806939A4B049705939A
:103D3000994B0893994B9A46994B0993069BAB4232
:103D400000D849E16B7801220B2B03D12B78EA785C
:103D5000ED186B78042B00D038E1069B00265B1B26
:103D60009BB20793059B17001B7818E053461B680E
:103D700072019B18002B00D128E1290040461B69E5
:103D8000079A9847082803D9079B834200D30BE181
:103D9000059B01361B78F6B2B34200D216E1B3425E
:103DA000E4D8089AF31A94465B016344E5E76B781C
:103DB0000AAA02321370404601230CA900F016FA39
:103DC0009EE5E3881A0AD8B20F2A00D908E7754998
:103DD0009300CB589F460CA800F06EFA4046A1799C
:103DE000FFF7A2FB02222B7813432B7088E5E388B0
:103DF000012B00D0F4E608222B78404693430CA90F
:103E00002B7000F0DDF97BE5022029780AAB9A1CC3
:103E10008B068908DB0F01400B43138040460223C9
:103E20000CA900F0E3F96BE5E388012B00D0D7E69D
:103E300008222B7813432B7024E7237A0F2B00D909
:103E4000CEE6544AEB181B791278934228D2534A93
:103E50005B011568ED18002D00D1C1E6686900F01E
:103E600025FA012140466B690CAA9847C9E6002A49
:103E700000D0B5E600239A4662790220130004922E
:103E80008343012B11D0002A00D0A9E62B004B441C
:103E90005B4430331B790AAA9B07DB0F0232BCE775
:103EA000934200D09CE63C4DD8E7E388002B12D12A
:103EB000039B1878049B012B23D0FFF7FBFB4B4699
:103EC0000221EB185B4430331A790A4301211A713D
:103ED0001A790A431A715346002B00D110E558692C
:103EE00000F0E4F9534601215B690CAA404698476B
:103EF000002000F0DBF93523EB5CDB0700D5FFE4A5
:103F0000C0E6FFF7F1FB4B460221EB185B44303370
:103F10001A798A431A711A7904998A431A71DAE76D
:103F2000FFF748FCAEE600214046FFF707FB40469E
:103F3000FFF7AAFB00229346174AAB780592174A6F
:103F4000049306922A00134B5D46994693461B78CC
:103F50000EE0069B6A011B689B18002B55D0DB689E
:103F6000404698474B4601351B78EDB2AB4238D3FB
:103F70009D42EED3059AEB1A94465B016344EEE74B
:103F80000AAB9A1C404601230CA9157000F02EF9CB
:103F9000B6E4C0464C1B0020E85000106812002018
:103FA000981300208C5000103A000700002A3CD0E3
:103FB000AB789A18D2B204E00133DBB20E719A42A8
:103FC00033D04946C9180879FF28F5D05E464D46DA
:103FD000049F00236B7003E65E46049FFFF7E8FB37
:103FE00050E65D46542200212800FFF7C9F8102250
:103FF000FF21281DFFF7C4F828002022FF211430DC
:10400000FFF7BEF8049BAB7064E65D46FAE7FFF786
:10401000C9FB021E00D1E3E5D37891781B020B4364
:1040200040460CA900F0E2F8EBE5330029003A0025
:10403000099800F091FC059BED191B78B34200D361
:104040007CE6C3E7FFF7B0FB021E00D1C8E540469F
:1040500013780CA900F0CAF8D3E52189FDF7F8F828
:10406000021EF4D1BCE5022A0FD0FFF79FFB021E0F
:10407000D2D1B5E5FDF7E4F8021E00D1B0E5122378
:1040800040460CA900F0B2F8BBE5FDF7DDF8021ED2
:10409000C2D1A5E5F8B557464E46DE4645460C006A
:1040A000E0B516001F00002A3CD01F4B00259A46A1
:1040B000702399461D4B9B4617E05B46200099787C
:1040C00000F00CFC00281FD021004046FFF752FAF8
:1040D000002819D0A378DA09012A1CD00A9A0135E0
:1040E00013702378E418B5421CDA6378052B0BD1E2
:1040F000E3789B079B0FBB4206D153464A461B7889
:104100009846A3781A42D8D00020F0BCBB46B246ED
:10411000A946A046F8BD0B9A013513702378E41820
:10412000B542E2DB0120F0E7DC0E00208413002022
:104130000B007F2010B51840DB0934334000044ADF
:10414000C018044B1168C01800F0A0FB10BDC04699
:10415000D81300208413002070B57F240F480C4032
:1041600064000419CD09641930342079C00701D5E1
:10417000002070BD01262579094835430078257156
:10418000FFF786FA0028F4D10122237993432371A3
:104190002379033293432371EAE7C0468413002056
:1041A000DC0E00207F22054B0A405200C9099B18F3
:1041B0005B1830331879C007C00F70478413002094
:1041C00070B5094C0600082220000D00FEF7DEFF46
:1041D00000238021E360A3602B7830009943002204
:1041E0000023FFF7B9FF70BDAC120020F8B5CE4632
:1041F00047469046264E80B58146082230000D0085
:104200001F00FEF7C3FF4346B3600023F381EC7940
:10421000AB7924021C43231CBC4200D93B1C9FB237
:10422000B381002C0ED0002F18D04346002B2CD089
:104230003B1C402F1BD89FB233787F2B1CD800210A
:10424000144A0FE080212B7800229943484600232E
:10425000FFF782FFC0BCB946B046F8BD7F230022FD
:10426000317899433B004846FFF776FFF2E7402359
:104270009FB233787F2BE2D9064C3A0041462000AA
:10428000FEF784FF80212200ECE70020E2E7C04631
:10429000AC1200206C12002010B51422002102483C
:1042A000FEF76EFF10BDC046AC120020014B186136
:1042B0007047C046AC12002010B5054C0100082222
:1042C0002000FEF763FF0023A360E36010BDC0463B
:1042D000AC12002070B5384C1D0023780600DA09B6
:1042E000C9098A4210D00020002D00D070BD2100E5
:1042F0003000FFF731F92369002B03D0220003219E
:10430000300098470120F1E7A0687F2B05D80028EE
:1043100034D02A002949FEF739FFE289A1685219F1
:10432000E38892B24919E281A160934214D03F2DF3
:1043300012D9A389981A051C80B240282AD820785F
:10434000ADB27F2828D800219A4232D01B4A2B00D8
:104350003000FFF701FFC9E72369002B05D02200D9
:1043600002213000984700280AD0802123780022BB
:10437000994330000023FFF7EFFEB7E70020B5E7D1
:1043800000213000FFF796F930008021FFF792F905
:104390000120ABE74025D2E79A4207D0074C2A001C
:1043A0002000FEF7F3FE80212200D0E780210022CA
:1043B000CDE70022CBE7C046AC1200206C120020F3
:1043C0007047C046012070477047C0467047C046DE
:1043D00042000C4B1218920010B59B185C78FFF746
:1043E000EFF9002801D1002010BDFFF7F1F90028F6
:1043F000F9D1002CF7D02100FFF7D4FE012358405B
:10440000C0B2F1E760130020F0B54646D6464F46ED
:10441000C0B582B06D460E00190000232A7004005A
:1044200006226B7000293BD0A81CFEF7AFFE012CC2
:1044300006D9002002B0E0BCBA46B146A846F0BD9D
:104440001A4BA246994663009846C24453469B00C5
:104450004B4400205978FFF76BFE0028E9D0302745
:104460006342134A1F401037BF18002E0DD13B0086
:1044700006CD06C308232200424492004A445178E4
:1044800000203A00FFF768FED4E753461B01D2181C
:10449000167429000822781CFEF778FE0923EAE743
:1044A0000021A81CFEF76CFEC1E7C0466013002087
:1044B0000013002010B5182200210248FEF760FE0C
:1044C00010BDC046601300200120704710B51822AF
:1044D00000210248FEF754FE10BDC04660130020C4
:1044E000F0B5C64600B54B7906000D0082B0032B2F
:1044F0000DD10879C400241A1234A4B2944206D80B
:104500001F4F7B78002B37D07B7B002B05D00024FE
:10451000200002B080BCB846F0BD503398460C373E
:10452000297869184B78212BF1D1B9600B780200FA
:10453000C9187B1C0193BB1C009330000323FFF7B9
:10454000A9FD0028E3D0AB79012B01D1EB79FB70F9
:104550000123BB71AB78B9783B70BB68DA791B7A01
:104560001B021343BB800029D2D0064A102330001F
:104570004244FFF7F1FDCBE720239846D0E7C04641
:104580006013002000130020F0B54646D6464F4683
:104590001F25C0B513780600140082B01D40012D00
:1045A00007D17C4F12793878904209D0387B9042FD
:1045B00034D0002002B0E0BCBA46B146A846F0BDF7
:1045C00006229146013292460022002594469046EA
:1045D000602002001A40184229D1012901D001208F
:1045E000E8E7E378A17862781B020B43062AE0D162
:1045F0001B0A212B00D1ABE0222BDAD12800FCF7DB
:1046000017FE43465B0043449B00FB180200210059
:1046100030009B88FFF7EAFD0120CBE7122291468C
:10462000013292461D3294462F3A9046D0E7202A16
:10463000BFD160780B28BCD8574B80001B589F46D1
:1046400001291BD00329CAD143465B004344A1780A
:104650009B002800FF18B971FFF7B2FE0120A9E7FF
:104660000129BCD143465B004344E1789B00FB1821
:104670002800D971FFF7A6FE00289AD0210030004B
:10468000FFF79EFD012095E7012970D00329A6D1EF
:10469000A079E278A178E479404B24020443634492
:1046A000201C102C00D9102080B2002907D0012C2A
:1046B00005D91C788C4202D10138013380B20090B8
:1046C0002800FCF7BBFD012074E7012987D13A00DF
:1046D0000123210030004A44FFF788FD012069E7EB
:1046E000012900D07BE73A00012321003000524429
:1046F000FFF77CFD01205DE7012900D06FE7274B24
:10470000A07963449846E379E2781B020343A178D9
:10471000181C102B00D9102080B2002936D0012B94
:1047200034D947464346397001270138013380B2F6
:1047300000902800FCF780FD3B189BB2002B00D1B5
:1047400037E7424621003000FFF750FD012031E7F6
:1047500043465B0043449B00FB189A68002A00D143
:1047600027E7210030001378FFF740FD22E7E379C7
:10477000A2791B021343102B00D91AE7074A210024
:1047800030006244FFF732FD012013E74346002763
:10479000CEE7C0466013002008510010001300202F
:1047A000F0B5264C0600A078657883B088420AD020
:1047B000A94220D0A07B657B884234D0A94238D062
:1047C000002003B0F0BD10202027844600209BB2BB
:1047D000A94214D01A497F18002A19D10093002148
:1047E0003B000232FCF72AFD10233A003000A1788A
:1047F000FFF7B2FCE5E7102100208C469BB2104980
:104800006144002A09D11A00FFF7DEFD0120D8E734
:104810003A000221FFF7DAFDE6E70A000121FFF77F
:10482000D5FD0120CDE74020502784460C343F3889
:10483000CDE7402101208C469BB2E0E760130020C9
:104840000013002000B5030083B0002910D0002021
:10485000012B07D80A78002A04D00B48C254012043
:10486000012A01D003B000BD1800FEF7B9FFF9E737
:10487000012301A900200B80FEF7B2FF0028F1D030
:104880000122014B1A70EDE778130020037870B510
:10489000DB0704000E00DD0F002B17D103785B0748
:1048A00001D5280070BD01213000494200F088F98F
:1048B0002378DB07DD0F002B0AD123785B0708D4B0
:1048C0000422237801251343237002E00025E8E742
:1048D0000025300000F04CF9E3E7C0464379027947
:1048E0001B021343C2785B0592075B0D920F022AED
:1048F0001DD0032A0CD00020012A08D102394A42D7
:104900005141124A9446614499424041C0B27047B5
:1049100002394A1E91410E4A494211408022D2007A
:1049200094460020614499424041C0B2EFE7022919
:1049300005D0002040229A424041C0B2E7E7054A34
:10494000981843425841C0B2E1E7C046FF03000057
:1049500040FCFFFF00FEFFFF8A1870B5914207D2AE
:104960007F264C78052C04D00C7809198A42F8D897
:1049700070BD34008D782C4064000419ED09635536
:104980000C7809198A42ECD8F2E7C04670B50400E9
:1049900000690E00002803D00121494200F010F9FF
:1049A00025896089A288A9B283B285422CD3CD1A09
:1049B000ADB2002D2ED0AA4208D2914230D3891A2E
:1049C0008BB263819A4203D89B1A9BB29A42FBD95D
:1049D000E28821685204520C53433000C918FEF794
:1049E000D5FB63890125591C89B2A2888B4213D952
:1049F00000215200891A89B220696181002801D002
:104A000000F0B6F8280070BD5500ED1A4D19ADB292
:104A1000002DD0D1618989B252009142ECDBE9E7E7
:104A200089188BB26381CDE7F8B50400C0680E0029
:104A3000002803D00121494200F0C2F825892089CD
:104A40006189A288ADB283B28FB2884229D3DB1BC1
:104A50009BB29A4209D8E779FF0906D1E06800289D
:104A600001D000F085F83800F8BD95421ED32B0028
:104A70009B1A9BB29342FBD2E28820685204520CEC
:104A800053433100C018FEF781FB6B1C9BB2A28818
:104A90009D4218D9002352009B1A9BB20127238103
:104AA000DCE75100C91B5B189BB2D2E72B00E28800
:104AB00020685204520C53433100C018FEF766FBC5
:104AC0000135A288ABB252009342E7DBE4E7C0466F
:104AD00010B50400C068002803D00121494200F04D
:104AE0006FF82069002803D00121494200F068F8DE
:104AF0000023E06863812381002801D000F038F8AA
:104B00002069002801D000F033F8012010BDC04614
:104B100010B583070AD00300032102E001330B42E2
:104B200005D01A78002AF9D1181A10BD03001968A7
:104B30000C4A0D4C8A188A4322420FD15968094AFF
:104B400004338A188A43224208D15968054A04333B
:104B50008A188A432242F1D000E001331A78002AF1
:104B6000FBD1E1E7FFFEFEFE80808080F8B5C04605
:104B700001B40248844601BC604700BFED0100203B
:104B800001B40248844601BC604700BF550D0020B7
:104B900001B40248844601BC604700BF15020020F2
:104BA00001B40248844601BC604700BF550D002097
:104BB00001B40248844601BC604700BF110A0020CE
:104BC00001B40248844601BC604700BF5D0100207B
:104BD00001B40248844601BC604700BF390A002086
:104BE00001B40248844601BC604700BFC1000020F8
:104BF00001B40248844601BC604700BFC90A0020D6
:104C000001B40248844601BC604700BF790A002015
:104C1000FD280010292900100D2B00107131001003
:104C2000DD2F0010E1300010352A0010452900105A
:104C30006529001079290010611D001081290010DC
:104C400015210010C528001039180010B1020010FD
:104C500057415344204D4F44450000004152524FAC
:104C600057204D4F444500004573630055700000C8
:104C7000546162004C65667400000000446F776EFA
:104C800000000000526768740000000053480000F4
:104C90005350000057000000410000005300000086
:104CA000440000004D6163726F7061640000000099
:104CB000392D4B6579204D6163726F70616400001E
:104CC00031323334353600000A2A2A2A2050414E28
:104CD0004943202A2A2A0A000A0000004E6F207346
:104CE00070696E6C6F636B732061726520617661B1
:104CF000696C61626C65000048617264776172651D
:104D000020616C61726D20256420616C7265616444
:104D10007920636C61696D656400000048617264AC
:104D2000206173736572740052656C656173650010
:104D3000626F6F74325F7732357130383000000047
:104D4000322E322E300000007069636F00000000C8
:104D50006D6163726F7061640000000044656320E0
:104D60003137203230323500556E68616E646C65C3
:104D7000642049525120307825780A00657020253A
:104D80003032582077617320616C726561647920DC
:104D9000617661696C61626C6500000043616E2739
:104DA0007420636F6E74696E756520786665722015
:104DB0006F6E20696E616374697665206570202569
:104DC00030325800290052002B00500051004F0093
:104DD000E10000002C00000029001A002B00040054
:104DE00016000700E10000002C0000000603000789
:104DF000040108050200000003040600000102008F
:104E000000FF0100010000FFFF0000010001FF00A2
:104E1000000000000000005F000000070007001411
:104E20007F147F14242A7F2A1223130864623649D0
:104E30005522500005030000001C224100004122C1
:104E40001C0014083E081408083E080800503000F2
:104E5000000808080808006060000020100804022C
:104E60003E5149453E00427F400042615149462142
:104E700041454B311814127F1027454545393C4AAE
:104E800049493001710905033649494936064949FE
:104E9000291E003636000000563600000814224154
:104EA00000141414141400412214080201510906BC
:104EB000324979413E7E1111117E7F494949363E82
:104EC000414141227F4141221C7F494949417F099B
:104ED0000909013E4149497A7F0808087F00417F5E
:104EE00041002040413F017F081422417F40404063
:104EF000407F020C027F7F0408107F3E4141413E0B
:104F00007F090909063E4151215E7F09192946465C
:104F10004949493101017F01013F4040403F1F2085
:104F200040201F3F4038403F631408146307087057
:104F300008076151494543007F41410002040810C0
:104F4000200041417F0004020102044040404040F3
:104F50000904000009022200010100A03209040036
:104F6000000103000000092111010001225C00077B
:104F70000581031000010000120100020000004042
:104F80008A2E01100001010203010000050109063B
:104F9000A1018501050719E029E7150025019508FC
:104FA000750181029501750881010508190129051E
:104FB0009505750191029501750391010507190089
:104FC0002AFF00150026FF00950675088100C00520
:104FD0000C0901A1018502150026FF0319002AFF13
:104FE00003950175108100C006005250D3F0754240
:104FF000284D001006005250E182887F304D00108D
:1050000006005250ABB36053404D001006005250A2
:10501000BBFF3CB6484D001006005250861C0302F0
:10502000504D0010060052505422A29D5C4D0010BD
:1050300005005250DE65F4687C5F00100D0A000028
:1050400000390010683A0010F23A0010403A00109F
:10505000523A0010303A0010A03900104C390010BC
:1050600040390010083E0010EE3D0010E03B0010FB
:10507000283E0010E03B0010D63D0010C23D00105D
:10508000E03B0010AE3D0010C23C0010E03B0010C1
:1050900074400010664000105A400010E03B0010C1
:1050A000E03B00104440001066400010E03B001060
:1050B000E03B0010E03B0010E03B0010E03B001044
:1050C000E03B0010E03B00100E4000109A0B002067
:1050D0009A0B0020E40B0020040C0020420C00205E
:1050E000540C0020900B002000000000B54400107C
:1050F000C9440010CD440010E1440010894500105F
:10510000A147001000000000B2450010F846001052
:10511000E0460010CA460010B2450010B24500102B
:10512000B2450010B2450010B2450010884600108C
:0851300060460010404600102B
:10513800E84F0010F44F0010005000100C50001001
:0C514800185000102450001030500010CF
:10515400F0B5C646150000B504001E000268EFF362
:10516400108172B61368002BFCD0BFF35F8F042349
:10517400E356002B2DDB2268BFF35F8F0020106005
:1051840081F31088D0221206127852B290469A42C5
:1051940003D1002080BCB846F0BD00270BE0236893
:1051A400BFF35F8F1F6081F310882800310000F087
:1051B40053FE0028EDD12268EFF3108172B6136814
:1051C400002BFCD0BFF35F8F23797F2BE7D94346B5
:1051D40002E0D0231B061B6823712368BFF35F8F93
:1051E40000221A6081F310880120D3E7F0B5C64687
:1051F40000B50D00040000F0F7FDFA2206000F00D0
:10520400002328000021920000F00EFE80233618AF
:105214004F411B069F4202D30126174F7642D023EB
:105224001B061B68002598460BE02368BFF35F8FBD
:105234001D6081F310883000390000F00DFE002855
:1052440018D12268EFF3108172B61368002BFCD0DA
:10525400BFF35F8F23797F2BE7D9434623712368FC
:10526400BFF35F8F00221A6081F31088012080BC95
:10527400B846F0BD0020FAE7FFFFFF7F0268EFF3B6
:10528400108172B61368002BFCD0BFF35F8FFF232D
:1052940003710368BFF35F8F00221A6081F31088E3
:1052A40040BF70470022154B10B59A60DA601A614E
:1052B4005A619A61DA611A625A629A62DA621A630C
:1052C4005A639A63DA631A645A649A64DA641A65EC
:1052D4005A659A65DA651A665A669A66DA661A67CC
:1052E4005A679A67DA67F03292000021044800F0A6
:1052F400ABFD044B044A1A6010BDC04600001050B8
:10530400481700200C1B002080011050F0B54E46B9
:105314004546DE465746E0B5214B00249E6D0125E7
:1053240085B0002E22D01F4B9A46012399461E4B6E
:10533400984601E0202C19D02A00230001342F00C4
:105344003240E4B26D00002AF4D0524697654A46D2
:105354005B085B0022409B185B01434418009B469A
:1053640000F030FC002808D1BE43E3D105B0F0BC06
:10537400BB46B246A946A046F0BD5B46E0219A78FA
:10538400DB8A01A883600023C90001800121027126
:10539400437100F037FC584600F0B0FBE4E7C04628
:1053A4000000115000301150081700209823F0B568
:1053B400C646C64A00B5D55880232E009B02102449
:1053C40084B01E401D4273D0C14BC24C9A6AC24B7A
:1053D40000261A603B23E35C022B00D1F4E07B231C
:1053E400E35C022B00D10CE1BB23E35C022B00D174
:1053F400FBE0FB23E35C022B00D135E13C23FF33CC
:10540400E35C022B00D122E17C23FF33E35C022B1B
:1054140000D10FE1BC23FF33E35C022B00D1FCE09D
:10542400FC23FF33E35C022B00D1A6E1AB4BE35C2E
:10543400022B00D196E1AA4BE35C022B00D185E15B
:10544400A84BE35C022B00D174E1A74BE35C022B75
:1054540000D163E1A54BE35C022B00D12AE1A44B0C
:10546400E35C022B00D10BE1A24BE35C022B00D1E5
:105474008FE1A14BE35C022B00D1A6E1002E08D101
:105484009E4B1B78002B04D180219D4A90338902C6
:10549400D150C0228D4B01A89B6C92005B055B0D23
:1054A400012180260280436000F0ACFB954CB602DB
:1054B400EB0600D57CE080235B021D4232D01E4304
:1054C400012302249846834FBB7E002B14D000F0A6
:1054D400B3FC012800D96FE0C022002138009201FA
:1054E40000F012FB380000F009FB00F0A5FC0128D5
:1054F40002D9834B5C661C664346FB702037012C43
:1055040001D00124E0E7C02301A8DB007E4A038028
:1055140002AB12CA12C3012100F074FB8022784B43
:1055240092021A6580235B011D420ED18023DB01A8
:105534001D4221D180231B021D422CD1AE4200D03A
:10554400C0E104B080BCB846F0BD00241E435F4BEC
:105554001C60FFF7A7FE80236A465B0093801472E9
:10556400012101A800F04EFB8022654B12031A654D
:105574008023DB011D42DDD01E43802301A8DB0014
:105584000380012100F03EFB10225D4B1A6580234D
:105594001B021D42D2D01E43A02301A8DB000380BE
:1055A400012100F02FFB8022554B12011A65C5E73B
:1055B400FFF7ACFE26007EE7544B444A1C66536E4C
:1055C4002340A342FBD187E73833E65C002E00D1A9
:1055D40005E70233E25C002A00D100E72000002244
:1055E4002030E25400F0B8FAF9E6B833E75C002F53
:1055F40000D1FEE60233E25C002A00D022E13E0044
:10560400F7E67833E75C002F00D1EDE60233E25C85
:10561400002A00D00EE13E00E6E6B933FF33E75C32
:10562400002F00D1FCE60233E25C002A00D0F8E04F
:105634003E00F5E67933FF33E75C002F00D1E9E65D
:105644000233E25C002A00D0E2E03E00E2E63933B5
:10565400FF33E75C002F00D1D6E60233E25C002A78
:1056640000D0CCE03E00CFE6F833E75C002F00D159
:10567400C4E60233E25C002A00D0B8E03E00BDE696
:10568400234BE75C002F00D1EEE60233E25C002AF4
:1056940000D010E1174BE35C022B00D18BE0164BDA
:1056A400E35C022B00D0F4E61A4BE35C002B00D041
:1056B40090E0EEE6184BE75C002F00D1CFE6023312
:1056C400E25C002A00D0EEE03E00C8E60000115083
:1056D4000040054008170020001700203B0200008E
:1056E4007B020000BB020000FB0200003B03000041
:1056F4007B030000BB030000FB0300004D1B0020E4
:105704000030115010000200000010500020115011
:105714007A030000FA0300003A0300006C4BE75CD4
:10572400002F00D196E60233E25C002A00D0B2E0FA
:105734003E008FE6674BE75C002F00D185E602331D
:10574400E25C002A00D09EE03E007EE6624BE75C0D
:10575400002F00D174E60233E25C002A00D08AE014
:105764003E006DE65D4BE75C002F00D163E602333B
:10577400E25C002A77D13E005DE6F933FF33E75C53
:10578400002F00D152E60233E25C002A62D13E00CF
:105794004CE6534BE35C002B00D16AE6EF239B00FD
:1057A400E25C002A00D17AE70022E2541C3BE018B4
:1057B40000F0D2F973E74A4BE35C002BEED1494B7E
:1057C400E35C022B00D064E63E00474BE35C002B15
:1057D40000D153E6FF239B00E25C002A00D158E687
:1057E4000022E2541C3BE01800F0B6F951E6200018
:1057F4000022E030E2543E0000F0AEF9FEE5200065
:1058040000222130FF30E2543E0000F0A5F9FBE510
:10581400200000226130FF30E2543E0000F09CF989
:10582400F8E520000022A130FF30E2543E0000F0F1
:1058340093F9F5E5200000226030E2543E0000F0C8
:105844008BF9D1E520000022A030E2543E0000F0A4
:1058540083F9CEE520000022E130FF30E2543E001F
:1058640000F07AF9E2E50022E2541C3BE01800F073
:1058740073F93E00DFE50022E2541C3BE01800F01F
:105884006BF93E00DCE50022E2541C3BE01800F01A
:1058940063F93E00D9E50022E2541C3BE01800F015
:1058A4005BF93E00D6E50022E2541C3BE01800F010
:1058B40053F93E00D3E50022E2541C3BE01800F00B
:1058C4004BF9E7E631000948694000F09DFAC0460B
:1058D400FA020000BA0200007A0200003A02000054
:1058E400BA030000FB030000FA030000684D001037
:1058F400F0B5D6464F464646C0B50200838A008BB3
:105904008A46041C984200D91C1CD578802628009D
:10591400471EB841A4B2F600264340033043012693
:1059240075401B1BD57055789BB29382002D37D1DF
:105934005146D6688D01611E761988461569002C7A
:1059440029D006293AD933002B439B0736D16B1C47
:10595400F31A022B32D9231F9B0801339C460027DC
:105964000023E9580137F1500433BC45F9D86346A4
:1059740041469B00ED18F618CF1A9C4209D02B78AB
:105984003370002F05D06B787370012F01D0AB7882
:10599400B3701569938A2D19156180221202104380
:1059A400002B02D18023DB0118435346002B00D087
:1059B4000004E0BCBA46B146A846F0BD0023EF5C43
:1059C400F75401339C42FAD11569938AE3E7C04640
:1059D4008368F0B51B680500002900D01B0C9B05EB
:1059E400980D6B78002B08D1EB8AC318EB822B8BB4
:1059F400834201D90023AB82F0BDEB688901461EC6
:105A0400B4462A695C18002827D0062E2BD9013108
:105A14005B18D31A022B26D9130023439B0722D1E8
:105A240000230021061FB6080136E7580131D7507C
:105A340004338E42F9D86346B600A41992199F1B09
:105A4400B04209D023781370002F05D063785370C7
:105A5400012F01D0A37893702A69EB8A1218C31816
:105A6400EB822A61C3E70023E15CD15401339842FD
:105A7400FAD12A69F1E7C04610B504008368002111
:105A84001B68FFF7A5FF63681B685B0002D5238BC7
:105A9400834200D010BD01212000FFF799FFF9E7F0
:105AA400084A0300126C0020920703D49A78D209A2
:105AB400012A00D07047D87E023843425841C0B210
:105AC400F8E7C0460000115010B5FFF7E9FF0028C1
